:1000000012C02CC02BC02AC01CC228C027C026C0CA
:1000100025C06CC223C022C021C020C01FC01EC08A
:100020001DC01CC01BC011241FBECFE5D4E0DEBF25
:10003000CDBF10E0A0E6B0E0E4EDF8E002C005902E
:100040000D92A836B107D9F710E0A8E6B0E001C0DC
:100050001D92AC38B107E1F71BD03AC4D1CFA898B4
:10006000A09817B887E886B90895369A349BFECFD2
:1000700084B195B190936D0080936C008050944052
:1000800030F08FEF93E090936D0080936C000895B3
:10009000EF92FF920F931F93CF93DF93B89AC0987C
:1000A000B99AC198BA9AC298A39AAB98A298AA9AF8
:1000B000A59AAD98A498AC9A8A9A92988898909AA2
:1000C000BB9AC398BC98C49AFBD3C9DFACD1B3D157
:1000D000C09A88E893E120E931E0F9013197F1F71E
:1000E0000197D9F7C0987894809163008F3FE1F32E
:1000F000809163008823C1F780ED97E020E931E02B
:10010000F9013197F1F70197D9F79C9B0BC0C29A7F
:1001100088EB9BE020E931E0F9013197F1F7019795
:10012000D9F7C298809B28C088EB9BE020E931E09A
:10013000F9013197F1F70197D9F7C29A88EB9BE063
:1001400020E931E0F9013197F1F70197D9F7C29829
:1001500088EB9BE020E931E0F9013197F1F7019755
:10016000D9F7C29A88EB9BE020E931E0F901319799
:10017000F1F70197D9F7C298B49B14C088EB9BE0C4
:1001800020E931E0F9013197F1F70197D9F7C19AE8
:1001900088EB9BE020E931E0F9013197F1F7019715
:1001A000D9F7C19880ED97E020E931E0F901319766
:1001B000F1F70197D9F7C0982EE088E190E00FB6EB
:1001C000F894A89581BD0FBE21BD78941FEF01E082
:1001D00092E0F92EC1E0D0E083E0E82E8091630048
:1001E0008F3F91F190916300913089F0913028F028
:1001F0009230D9F0933031F523C080916800882384
:1002000019F0109268001EC0009368001BC0809116
:1002100068008823B9F080916A00882319F0109251
:100220006A0010C090936A000DC080916800882316
:1002300049F080916900882319F40093690002C095
:100240001092690010936300809165008F3FA9F0C0
:1002500080916500882319F0833069F40AC0809189
:100260006800882319F01092680005C000936800A8
:1002700002C01092690010936500809162008F3F68
:1002800041F080916200833011F4F0926900109384
:100290006200809164008F3F21F080916400109390
:1002A000640080916800882371F08091820081FD54
:1002B00008C080918300909184000A9710F0C09844
:1002C00036C0C09A34C0C0981092690010926A007B
:1002D0001092610010926000AD989298C3981092AD
:1002E0008400109283001092750010927400109296
:1002F0007F0010927E0010926F0010926E0010929C
:100300007100109270001092810010928000109283
:1003100073001092720010927800809178008093A0
:1003200077008091770080937600BC98C49A809182
:100330006900813089F420917400309175008091BA
:100340007E0090917F00822B932B892B79F5D0939F
:100350007100C09370002AC08230C9F4809160009F
:1003600090916100019731F080916000909161005F
:10037000892BE1F4F8941092610010926000789457
:10038000E092690010927100109270000FC08330EB
:1003900029F4D0938100C093800008C010927100AE
:1003A000109270001092810010928000809169007C
:1003B000813029F4809174009091750006C08330DB
:1003C00061F480917E0090917F00892B21F08091D3
:1003D000820081FF02C0C29A01C0C29880916A0067
:1003E000882389F08091720090917300892B11F419
:1003F000F0928600D0937300C093720080918200C7
:1004000081FD0EC005C0109273001092720006C0EC
:1004100080916E0090916F00892B11F0C19801C0FE
:10042000C19A23DEDBCE83E083BF8BE082BF89B736
:10043000816089BF089586E085BD89B7806489BFE2
:1004400008951F920F920FB60F9211242F933F938E
:100450008F939F938FEF84BD809185008F5F8093F2
:10046000850080918600882329F520918500809160
:1004700060009091610030E0029728173907D1F4AD
:1004800080916000909161004597A0F09B9B12C005
:100490009A9910C080918300909184008053954771
:1004A00048F4809183009091840001969093840099
:1004B0008093830080918300909184000A9760F478
:1004C00080918500209160003091610090E082175A
:1004D000930710F4AB9A01C0AB989F918F913F9115
:1004E0002F910F900FBE0F901F9018951F920F9293
:1004F0000FB60F9211242F933F934F935F936F93F7
:100500007F938F939F93AF93BF93EF93FF937894D1
:1005100082B7855F82BF80917C0090917D000196BB
:1005200090937D0080937C00A89580917C009091B1
:100530007D0080917C0090917D00882371F48091F2
:1005400082008F5F8093820080918600882329F04B
:100550008091860081508093860080917C009091EC
:100560007D008F709070892B09F402D180917C00FE
:1005700090917D0083709070892BF1F52091690036
:10058000223011F0222379F4809160009091610073
:10059000892B49F0809160009091610001979093C0
:1005A000610080936000213011F0233029F58091A3
:1005B00060009091610020916C0030916D00369543
:1005C0002795369527958217930730F48091600020
:1005D0009091610001960CC0809160009091610043
:1005E0002817390748F480916000909161000197C5
:1005F000909361008093600080917C0090917D00D9
:100600008F709070892B09F0A2C080916B008F5F72
:1006100080936B0080916B00843010F010926B001F
:1006200080916B008130B1F1813020F0823009F08F
:100630008EC05FC08091720090917300892B39F059
:1006400080916E0090916F00892B09F4C39A80917C
:10065000720090917300892B09F4C398B39B17C063
:10066000809178008F5F809378008091780083304C
:1006700008F46DC082E080937800B49968C081E08E
:1006800090E090936F0080936E00C39860C01092CA
:1006900078005DC08091800090918100892B39F0B5
:1006A00080917E0090917F00892B09F4929A80912D
:1006B000800090918100892B09F49298829B16C04A
:1006C000809177008F5F80937700809177008330EF
:1006D000F0F182E080937700809939C081E090E06A
:1006E00090937F0080937E00929831C010927700A3
:1006F0002EC08091700090917100892B39F080910B
:10070000740090917500892B09F4AD9A8091700066
:1007100090917100892B09F4AD989D9B16C0809132
:1007200076008F5F8093760080917600833078F03A
:1007300082E0809376009C990AC081E090E09093DB
:10074000750080937400AD9802C010927600FF91FE
:10075000EF91BF91AF919F918F917F916F915F9139
:100760004F913F912F910F900FBE0F901F901895B2
:10077000DF93CF930F92CDB7DEB780B3807F8093A6
:100780008B0080918B0082958F7080938B0080917D
:1007900063008F3FE9F5809165008F3FC9F5909127
:1007A000660080918B0089278983882389F1E0E0A6
:1007B000F0E0DE0111962E2F8C9190E00E2E02C0FB
:1007C000959587950A94E2F780FF1EC080918B0073
:1007D00090E00E2E02C0959587950A94E2F780FF6F
:1007E00013C0DF01A957BF4F8C91833028F08C9143
:1007F0008C3310F4E0936300E957FF4F80818D3311
:1008000038F02093650004C03196E430F10599F684
:10081000809163008F3FA1F5809164008F3F81F547
:1008200020E030E05DE3422F80918B0090E0022ECB
:1008300002C0959587950A94E2F7F901E957FF4FB1
:1008400080FD18C08081863E18F480818F5F808390
:10085000F901E957FF4F8081823011F44093620023
:10086000F901E957FF4F8081823429F440936400F5
:10087000508301C010822F5F3F4F2430310599F61D
:1008800080918B00809366000F90CF91DF91089547
:100890008FEF80938B0090918B00909366008093F4
:1008A00063008093640080916400809365001092DF
:1008B0008700109288001092890010928A00089593
:1008C00081B38F7081BB82B3806F82BBE1DF0895FB
:0408D000F894FFCFCA
:0808D4000500FFFFFFFFFF001C
:00000001FF
